:02000004080AE8
:1000000000000A08544E0A08000005000600050119
:080010000402EA0300000000F5
:10001800DC430A0809480A4908B5884205D0094A54
:10002800824202D0121A04F0C9F80748074A002190
:10003800121A04F0CEF8064808BD00BF00030020DD
:100048009C4D0A089003002090030020700C0020AB
:10005800700C002070B502F065FE074B074C1E4679
:10006800E41AA4080025A54204D056F8253098477C
:100078000135F8E770BD00BF4C4D0A088C4D0A08E1
:1000880000F0A4BB08B500F00BFEBDE8084002F084
:100098000BBE01F047BB01F04DBB0078B0FA80F011
:1000A8004009704701230370704737B505469DF82E
:1000B800184023438DF800303C2301F0B7FC284654
:1000C80003B030BD08B501F05FF9034B1860BDE817
:1000D800084001F007BB00BF7C0B002003682BB170
:1000E8004268934202D2184604F052B80020704782
:1000F80038B50568044645B143689D4205D228468F
:1001080004F0BDF8013005442560204638BD70B5BF
:100118004368044680689E188642154606D82068BB
:10012800184404F04BF863681D44656070BD000016
:1001380070B504464068A66825680B46044A311A1B
:10014800284401F007FB636801301844606070BD03
:100158004A440A0870B504464068A66825680B46F4
:10016800044A311A284401F0F5FA6368013018444A
:10017800606070BD4D440A0838B5046805467CB116
:100188006368013B63605BB9236820469B689847B6
:10019800A368013BA3601BB923682046DB68984726
:1001A800284638BD10B50446034B40F8183BFFF706
:1001B800E3FF204610BD00BFEC4A0A0808B500233B
:1001C8004377006802F08CFABDE8084000F0D2BF1F
:1001D8002DE9F0418E188EB0B14280460D46174683
:1001E8000591069680F0EE800B8805A8ADF81230D0
:1001F800FFF77EFF03689E4240F2E48005A8FFF700
:100208006DFF47F27622BDF81230C4B2934200F077
:10021800A0800DD847F26122934265D047F264224C
:10022800934239D046F67052934240F0BD802FE099
:1002380047F26472934242D047F27672934200F0DA
:10024800998047F26172934240F0AE806EE005A853
:10025800FFF744FFC5B205A8FFF74AFF059C5B49B5
:10026800204603F0E7FF0146002800F0A780584920
:10027800204603F0DFFF002800F09F805549204604
:1002880003F0D8FF002800F0988005A8FFF730FF9A
:10029800059B9E42DBD895E00AAB07930322102307
:1002A80007A800254C4909930895FFF730FF07A8D0
:1002B8002146FFF73DFF204602F0AEFD26E005A8E7
:1002C800FFF716FF03689E427CD9A4B2012120469D
:1002D80002F078FD05A8FFF701FF011C18BF0121F6
:1002E800204602F080FD6DE00AAB0793032210233D
:1002F8003A4907A8002509930895FFF708FF07A8BA
:100308002146FFF715FF204602F099FD014607A890
:10031800FFF720FF2A46089B0295013B0093079BA5
:1003280001951421404600F0A1FA4BE005A8FFF71B
:10033800DFFE03689E4245D9A4B20121204602F09F
:1003480041FD05A8FFF7CAFE0146204602F08EFDD2
:1003580038E00EAD204605F8104D00F00DFF0346BD
:10036800284623B11E4A934201D098472AE000F05C
:10037800FFFE27E005A8FFF7BBFE059B20465D1B97
:100388007D1B0A930B950C958DF81C4000F0FEFE22
:1003980003460AA907A823B1124A934201D09847F5
:1003A80010E000F0E6FE0DE0002302210091B8F80D
:1003B8001A20029301931946B4E70121284602F056
:1003C80001FD62E70EB0BDE8F08100BF51440A08A4
:1003D80054440A0858440A085C440A085F440A0856
:1003E80079110A087B110A082DE9F0418EB004AF93
:1003F8000546052207F10C01006801F01DFF0028E1
:1004080000F01981052801D0002019E1B7F80D2066
:10041800B7F80F40130A43EA0222230A43EA0424E6
:1004280092B2A4B2A7F80D20A7F80F40002AEBD08B
:100438003B7BF3B900F098FE6B7FE860B7F80F20BC
:100448009BB9B7F80D1001290FD1042A01D0C82A89
:10045800DAD1012468616C77284600F0BFFAFFF70B
:1004680031FE00F087FE2046EAE0501F18BF012049
:10047800E6E0B4F5806F03D92846FFF79FFEDAE07F
:1004880004F1080323F00703E846ADEB030D04AEBF
:1004980022463146286801F0CFFE84424FF000041E
:1004A80040F0C480B7F80F30F45400F05DFE3B7B99
:1004B800E860112B72D006D8062B20D00F2B60D005
:1004C800022B09D0AEE0292B25D0372B00F0B080C5
:1004D800142B40F0A78054E06B7F43B901236B775E
:1004E800284600F07BFAFFF7EDFD00F043FE0023FD
:1004F800C821B7F80D2002930193009106E0C823A4
:10050800B7F80D2000932346029401941946284613
:1005180000F0ACF98CE0AB681BB9202001F002F9BF
:10052800A860B7F80F40FE613444A6423C6201D38C
:1005380000207EE020223146A86803F0A8FE07F1DB
:100548001C00FFF7D5FD0368A34207D2F86918B16C
:100558003B6A984271D3002084B200E05024286896
:1005680002F0BEF82B68AA681C875A6300236B77D1
:1005780000F0FAFDA0F59C5008382861E860686131
:1005880056E0FB68B7F80F20C3F30F236B8331469F
:100598002846FFF71DFE00236B8349E0B7F80F30AC
:1005A8003C7133449E427E61BB6141D23068B86081
:1005B80007F11400FFF79CFD7A69B7F80F30961B16
:1005C8009E1BFA61BB68204A3E6293427E621DD040
:1005D8000BD802F1FD3202F10222934228D107F131
:1005E8001C01381D00F0C5FD22E0184A934213D0C3
:1005F80002F19F6202F5003202F58072934217D130
:1006080007F11C01381D00F0B4FD11E007F11C01D1
:10061800381D00F0AEFD0BE007F11C01381D00F09D
:10062800A8FD05E02846FFF7C9FD01E0204600E0E7
:100638000120C54604E0012002E003F0ADFD8BE790
:100648002837BD46BDE8F0817274630061636F6E40
:100658002DE9F04104468AB00D46FFF733FD637F6C
:10066800022B00F09D80237F628B0133DBB223775E
:10067800002A41D1022B3FD8206802F035F940B159
:10068800002D40F08F80206801F0ECFF002800F377
:10069800898000F069FD0646206802F025F9677F29
:1006A8000546012F2AD120B966612046FFF786FD4D
:1006B80072E044F63822E368F31A934204D92046DC
:1006C800FFF77CFD002567E042F21072934203D8E1
:1006D8002369F31A93420FD940F6B8326369F31AC3
:1006E800934209D900230293019300931A460621E5
:1006F800204600F0BBF8666101254DE0002FFBD1D4
:10070800626950B140F6B833B61A9E42F4D92068EF
:1007180001F0E6FF3D4667773EE041F28833B21AC2
:100728009A42E9D9206801F0DBFFD4F800E0DEF84E
:1007380034C0BEF83880BCF1000F06D02B464246C4
:100748006146704601F0AEFE0EE01F4B05AD0EF19E
:10075800200704930FCF0FC53B6842462B7004A9AE
:100768006346704602F018F8431E5D425D410DB9BC
:10077800666111E0676801262683384603F07FFD2D
:1007880000238DE80900029332463B4602212046A9
:1007980000F06CF823696361237F013B23770EE047
:1007A80000250CE02046FFF71FFE054600287FF4D1
:1007B8006AAF206801F094FF00F0DCFCECE7284603
:1007C8000AB0BDE8F08100BFC8490A08F8B502F0D0
:1007D80087F94FF4165102F069F941F2883000F0B8
:1007E800D1FF1C4A4EF660211B4800F036FD40F64A
:1007F800B8301A4C00F0B6FC194B42F22736636049
:1008080000F0B2FC2368174AA0F59C5008385A63D8
:1008180050222061E06060611A870025206801F09D
:100828005FFF657700F0A0FC0746637F012B09D0C6
:1008380000F09AFCC01BB04204D800210748FFF71B
:1008480007FFF2E7637F012BE8D10748BDE8F840CE
:1008580000F03FBB7D0A0A08F40300203806002098
:100868000003002062440A08940300202DE9F04F99
:1008780083B0044600AF0068894616469B463D6B28
:10088800EA4602F031F8002861D019F0FD0F00F0B7
:10089800A180B9F1060F00F09D80637F012B56D12E
:1008A80016B9668B002E57D0A9F10C03082B5BD91B
:1008B800BBF1000F18BFA8467A6B08BF4FF00008BD
:1008C800002ABA6B08F1050314BF90464FF00008E0
:1008D800984408F1070323F00703AA18ADEB030DAA
:1008E800C2F3072376BA43EA0223C7F804D08DF887
:1008F8000090ADF80160ADF80330BBF1000F52D0A5
:10090800002D50D02A4659460DF1050003F056FC3B
:10091800681D7B6B002B48D10025454551D2C5EB9E
:1009280008027B68B2F5806F28BF4FF480625919BE
:10093800206801F096FD0646002000F013FC002E0A
:100948003DD1206801F0CCFE667700F013FCD54657
:100958000C37BD46BDE8F08F238B01339BB203B93A
:1009680001232383268B9FE7E3682269934238BFDC
:10097800134603F1420800F0F7FBC0EB080000281B
:100988000ADB00212046FFF763FE00F0EDFBC0EB19
:1009980008000028F5DA8BE7217F002988D1204656
:1009A800FFF756FE84E70520B3E7BB6B002BB3D0F7
:1009B8001A467B68796B184403F000FCACE73544B1
:1009C800ABE703D02046FFF7F9FBC0E700F0CCFB0C
:1009D8002061BCE7002E7FF46BAF62E71FB50022F1
:1009E8005023009302920192034B1121FFF73EFF1F
:1009F80005B05DF804FB00BFF8430A082DE9F04193
:100A08000D469046ADF5846D08AB002403220646DA
:100A1800059305A84FF48063144907930694FFF7DC
:100A280076FB294605A8FFF783FB069B0799059DDA
:100A38004046CF1A1D4402F04DFD0D4ACDE9000194
:100A48003946284600F086FE069B01301844069079
:100A58000138009002940194059B224614213046E7
:100A6800FFF704FF0DF5846DBDE8F08172440A08B4
:100A780075440A082DE9F0434FF47A7189B070483B
:100A880000F016FB07306F4C07285DD8DFE800F050
:100A980051463B30251A0F0402F022F86A4901F04A
:100AA8006EFA00228DF800202378674A56E002F09B
:100AB80017F8664901F063FA00228DF800202378C0
:100AC800634A4BE002F00CF8624901F058FA002240
:100AD8008DF800202378604A40E002F001F85F4971
:100AE80001F04DFA00228DF8002023785C4A35E0A9
:100AF80001F0F6FF5B4901F042FA00228DF8002070
:100B08002378594A2AE001F0EBFF584901F037FAF7
:100B180000228DF800202378554A1FE001F0E0FFFD
:100B2800544901F02CFA00228DF800202378524A0B
:100B380014E001F0D5FF514901F021FA00228DF8A7
:100B4800002023784E4A09E001F0CAFF4D4901F020
:100B580016FA00228DF8002023784A4A4A4904A848
:100B6800FFF7A3FA05A8FFF707FB354800F0C4FA1A
:100B7800064601F0B5FF454901F0EEF901F0B0FF76
:100B88000546304602F0A6FC02270B4602460097AF
:100B9800284601F0FBFA4FF000083146062204A867
:100BA80001F01AFC2378049A394902A88DF80080CC
:100BB800FFF77BFA03A8FFF7DFFA04A801F0B4FBFC
:100BC8001F4800F0B3FA054601F08AFF314901F0E9
:100BD800C3F901F085FF8146284602F07BFC0097A7
:100BE8000B460246484601F0D1FA2946062204A8D7
:100BF80001F0F2FB2378049A274902A88DF80080B7
:100C0800FFF753FA03A8FFF7B7FA04A801F08CFB23
:100C1800324641462148FFF7F1FE324639461F4821
:100C2800FFF7ECFE2A4601211C48FFF7E7FE2A469B
:100C380003211A48FFF7E2FE09B0BDE8F08300BFC0
:100C480094030020F00300207B440A0885440A0826
:100C58008D440A089C440A08A4440A08B7440A08B0
:100C6800BF440A08D7440A08DF440A08F3440A08BC
:100C7800FB440A0805450A080D450A0822450A08E2
:100C88002A450A0836450A087E440A0844450A08DF
:100C980057450A0863450A0872450A0838060020BD
:100CA80008B500210348FFF7D3FCBDE80840024817
:100CB80000F0F5BA38060020F403002070B5154B93
:100CC800154D01221A7000F067FB284601F05AFD05
:100CD80005F11C00002401F0E9F8104A10492846E3
:100CE8006C632C8702F042F90E4B0F481D605C6064
:100CF8009C60DC601C615C611C835C831C775C7796
:100D080000F050FA2346BDE870400B220421074842
:100D180000F0DCB8F0030020580600209003002003
:100D2800AD010A0838060020F403002094030020CF
:100D380003685A68986812F0010F4FEA620218BFF8
:100D480081581B68104418BFCB58184770B5044623
:100D580000F012FB41F27072A36BA063C31A9342B6
:100D68000BD96FF00103E362032384F82930B4F848
:100D78004400BDE8704001F009B894F8292002F059
:100D8800FF0112B1012920D070BD402B03D8A26BFE
:100D9800D31AA36370BDA3F17E025D2ADDB205D824
:100DA800236C5A1C22641D70012371E0B4F84400BE
:100DB80000F0ECFF226C6FF00203E362032384F877
:100DC8002930531C2364157070BDA3F13D025D2AC0
:100DD8004FD894F836106E2B214491F830204FEA02
:100DE8004202D2B281F8302008D994F83620224441
:100DF80092F8301041F0010182F83010226CDBB219
:100E0800511C2164137094F8353003F0FF054BBB77
:100E1800072384F8353094F836300133DBB2052BDC
:100E280084F8363036D1B4F8440000F0AFFF94F8B7
:100E3800306094F8312094F83230324494F833001A
:100E4800134494F834100344DBB28B4202D04FF0C1
:100E5800FF331BE00223E56284F82930012384F87C
:100E68003C3070BD94F83530013BDBB284F8353046
:100E780070BD606C092B80B204D800F087FF6FF05A
:100E8800050303E000F082FF6FF00303E36203232E
:100E980084F8293070BD022A38B5044605D0032AE3
:100EA8000FD0012A10D10B6809E00C200D68FFF75C
:100EB800F0F8034618B195E8070083E807002360B7
:100EC80002E00068FFF7E7F8002038BD416482645B
:100ED800704738B504460023C3640323012580F80E
:100EE80029306FF0060380F85050C3622946B0F8E5
:100EF800440001F067FF2946B4F84400BDE83840D3
:100F080001F071BF70B5044686B000F03DFA94F860
:100F1800503023B9E36CC31AB3F5FA6F0AD394F8C7
:100F28002930032B08D094F82930022B04D06FF015
:100F380004005FE002205DE000231A4684F8503088
:100F4800E06484F82930E2540133292B4FF000057E
:100F5800F9D1072384F8305084F8315084F832509E
:100F680084F8335084F8345084F8353000236365AE
:100F7800A3650121B4F84400246484F8365001F0D4
:100F880021FF2946B4F8440001F02DFFA36C0B2B78
:100F980003D1122000F0F6FB03E040F2DC5000F031
:100FA800E3F90021B4F8440001F00CFF00F0E4F983
:100FB8000025A0630C20B4F844600495FFF769F895
:100FC80018B10D4B846080E828000C4B0290059303
:100FD8000B4B022204930023009302A94FF0FF3326
:100FE800304600F015FF049B1BB102A903220846F6
:100FF8009847012006B070BD550D0A08390D0A083A
:101008009F0E0A080000000010B5836C04460B2BE5
:1010180030D039DB153B012B36D890F8300094F8E6
:10102800313003EB002080B202F042FA18A3D3E972
:10103800002302F0A3FA02F099FD94F832306065BB
:1010480094F8320013F0800F94F833301BBF00F08F
:101058007F0003EB002003EB0020404208BF80B272
:1010680002F026FA0AA3D3E9002302F087FA02F075
:101078007DFD08E090F8300002F07EFE606594F88F
:10108800320002F079FEA065002384F83C3010BDE0
:101098009A9999999999B93F90F82930022B05D0D6
:1010A80090F82900033818BF0120704700207047C6
:1010B800F8B50D460446FFF725FF00F065F9074629
:1010C8000C4E2046FFF7E8FF58B125B100F05CF957
:1010D800C01B854205D900F057F9306000F002FBCB
:1010E800EFE72046FFF7D8FF10B16FF00203E36285
:1010F800E06AF8BD7C0B002010B590F82930044652
:10110800032B03D1C06A02F03BFE10BD90F82930D2
:10111800022B06D190F83C300BB1FFF775FFA06D9C
:1011280010BD014810BD00BF0000A0C010B590F868
:1011380029300446032B03D1C06A02F021FE10BDFA
:1011480090F82930022B06D190F83C300BB1FFF70C
:101158005BFF606D10BD014810BD00BF0000A0C05E
:1011680000F01AB900F00EBB00F00EB900F014B987
:1011780070477047704700007F289ABF024B53F8AA
:1011880020000020704700BF7C470A087F289ABFCC
:10119800024B53F820000020704700BF7C450A0826
:1011A80000F0FAB84FF0FF33C0F84032704770B51E
:1011B8000546FFF7D9FF06460024281924220021F6
:1011C80003F007F82E512434B4F5107FF5D100232D
:1011D800C5F8403270BDD0F840320F2B08DC002330
:1011E800242202FB0301496829B10133102BF8D1ED
:1011F8004FF0FF307047184670472DE9F84398467E
:10120800D0F840320546002B8946174601DAFFF729
:10121800CEFF2846FFF7DFFF041E1ADBCFB12426D6
:1012280066439DF82020AB191A73099AC3F81090E9
:101238005A6101225F60C3F808801A77FFF794FFAC
:10124800A851D5F8403220460133C5F84032BDE8F0
:10125800F8834FF0FF30BDE8F88307B5002301930A
:101268000093FFF7CAFF03B05DF804FB0F2938B5F8
:10127800044613D8D0F8403283B1242202FB01F58A
:101288002844436853B1002102F0A3FFFFF76CFF25
:101298006051D4F84032013BC4F8403238BD2DE9E2
:1012A800F04105460126FFF75FFF05F511772B1D75
:1012B8004FF0000E4FF0020C1A68C3F81CE0E2B1C0
:1012C80053F8048CDC68C8EB0002A24215D3B2FBC9
:1012D800F4F104FB018243F8042C1A7E6AB11969FF
:1012E80009B9DE6109E05A69914206D90132914291
:1012F800DE615A6198BFC3F81CC02433BB42DBD1FE
:101308002C460026236A6BB1227B636812B1A06861
:10131800984700E09847236A022B03D131462846B4
:10132800FFF7A4FF0136102E04F12404EAD1BDE82A
:10133800F08100F031B8000008B5024B1B681B6B48
:10134800019308BDD001060808B5024B1B68DB6E87
:10135800019308BDB801060808B5024B1B685B6815
:10136800019308BD9C01060808B5024B1B68DB68A1
:10137800019308BD9C01060808B5024B1B681B6950
:10138800019308BD9C01060808B5024B1B685B6900
:10139800019308BD9C01060808B5024B1B681B6831
:1013A800019308BDB001060808B5024B1B685B68CD
:1013B800019308BDB001060808B5024B1B689B687D
:1013C800019308BDB001060808B5024B1B68DB682D
:1013D800019308BDB001060808B5024B1B681B69DC
:1013E800019308BDB001060808B5024B1B685B698C
:1013F800019308BDB001060808B5024B1B689B693C
:10140800019308BDB001060808B5024B1B68DB69EB
:10141800019308BDB001060808B5024B1B689B6A1A
:10142800019308BDB001060808B5024B1B681B6B89
:10143800019308BDB001060808B5024B1B689B6FF5
:10144800019308BDB001060808B5024B1B681B6E66
:10145800019308BDAC01060808B5024B1B685B6E1A
:10146800019308BDAC01060808B5024B1B689B6ECA
:10147800019308BDAC01060808B5024B1B68DB6E7A
:10148800019308BDAC01060808B5024B1B681B6F29
:10149800019308BDAC01060808B5024B1B685B6FD9
:1014A800019308BDAC01060808B5034B1B68D3F8C7
:1014B8008030019308BD0000AC01060808B5024B56
:1014C8001B681B68019308BDBC01060808B5024BE0
:1014D8001B685B68019308BDBC01060808B5024B90
:1014E8001B689B68019308BDBC01060808B5024B40
:1014F8001B68DB68019308BDBC01060808B5024BF0
:101508001B681B69019308BDBC01060808B5024B9E
:101518001B681B6A019308BDBC01060808B5024B8D
:101528001B681B6B019308BDBC01060808B5024B7C
:101538001B685B6C019308BDBC01060808B5024B2B
:101548001B68DB69019308BDB401060808B5024BA6
:101558001B681B6A019308BDB401060808B5024B55
:101568001B689B69019308BDC401060808B5024BB6
:101578001B685B6A019308BDC401060808B5024BE5
:101588001B689B6A019308BDC401060808B5024B95
:101598001B68DB6A019308BDC401060808B5024B45
:1015A8001B681B6B019308BDC401060808B5024BF4
:1015B8001B685B6B019308BDC401060808B5024BA4
:1015C8001B689B6B019308BDC401060808B5024B54
:1015D8001B681B6C019308BDC401060808B5024BC3
:1015E8001B681B68019308BDD801060808B5024BA3
:1015F8001B685B68019308BDD801060808B5024B53
:101608001B681B69019308BDD801060808B5024B81
:101618001B685B69019308BDD801060808B5024B31
:101628001B689B69019308BDD801060808B5024BE1
:101638001B68DB69019308BDD801060808B5024B91
:101648001B681B6A019308BDD801060808B5024B40
:101658001B685B6C019308BDC001060808B5024B06
:101668001B689B6C019308BDC001060808B5024BB6
:101678001B681B6D019308BDA801020808B5024B41
:101688001B685B68019308BDA401060808B5024BF6
:101698001B685B69019308BDA401060808B5024BE5
:1016A8001B68DB6C019308BDA401060808B5024B52
:1016B8001B685B6D019308BDA401060808B5034BC0
:1016C8001B68D3F89030019308BD0000A4010608F8
:1016D80008B5034B1B68D3F89C30019308BD000084
:1016E800A401060808B5024B1B689B68019308BD56
:1016F800CC01060808B5024B1B681B6A019308BD9C
:10170800CC01060808B5024B1B68DB6B019308BDCA
:10171800CC01060808B5024B1B681B69019308BD7C
:10172800C801060808B5024B1B681B68019308BD71
:10173800A001060808B5024B1B685B68019308BD49
:10174800A001060808B5024B1B689B68019308BDF9
:10175800A001060808B5024B1B68DB69019308BDA8
:10176800A001060808B5024B1B68DB6A019308BD97
:10177800A001060808B5024B1B681B6B019308BD46
:10178800A00106080021FFF781BF10B58368044651
:101798000BB901F0F0FBC3689847A3681BB103229B
:1017A8002146204698472046BDE81040FEF773BC06
:1017B80070470020704710B50446FEF76CFC2046C1
:1017C80010BD08B508B1FFF7F6FF08BD10B583686E
:1017D800044613B1032201469847204610BD38B588
:1017E800C468D4B12378022B02D1E068FFF7A2FFC6
:1017F80065682DB12846FFF7E9FF2846FEF74BFC40
:10180800A5682DB12846FFF7E1FF2846FEF743FCFF
:101818002046BDE83840FEF73EBC38BD13B5044647
:1018280091E8050000234B600B602060626001A80E
:1018380001930093FEF7A0FC204602B010BD0B6890
:10184800036013B15A6801325A607047F7B50C4605
:1018580006460F4654F8043B02AD45F8083D2146BC
:1018680001A8FFF7ECFF29463046FFF7D7FF01A88C
:10187800FEF782FC2046FEF77FFC3846FEF70BFC9D
:10188800304603B0F0BD13B50B46044603C88DE8D7
:10189800030093E8030084E803009DE8030083E85D
:1018A800030002B010BD826810B50AB901F063FBED
:1018B800C368BDE81040184708B5006800F110017A
:1018C800FFF7F1FF08BD826810B50AB901F053FBB4
:1018D800C368BDE81040184708B5006800F110015A
:1018E800FFF7F1FF08BD38B5002383608B68044615
:1018F8000D462BB102229847EB68E360AB68A36002
:10190800204638BD2DE9F0414FF69C7304684FF02E
:10191800020086B0B1F904208B8000230F688DF88F
:1019280000300B60D4E84F1F994203D1C4E8450F3B
:10193800002DF7D102D08DF800106BE014F10C05E2
:101948001CBFE7602282BFF35F8F18BF1F460123C9
:101958006370BFF35F8F04F10803002053E8006F42
:1019680043E80002002AF9D1BFF35F8F002E51D05F
:10197800FFF794FE20B129463046FFF794FF43E075
:1019880031466846FFF7AFFFE068B4F9105008B178
:1019980002F05AFC04901020ADF81450FEF779FBC1
:1019A800054630B34FF00008C0F808801820FEF74D
:1019B80070FB0446C0B1C0F8088001466846FFF7CE
:1019C80062FF029BA268A360039B0292E268E36045
:1019D800BDF814300392A3824FF69C73ADF814300F
:1019E800049BCDF8108023610D4B2C60EB600D4BF0
:1019F800AB600498FFF79EFE6846FFF7E7FE0022FB
:101A080029460948FFF752FE3046FFF7DFFE304609
:101A1800FEF741FB3846FFF78DFE06B0BDE8F081C2
:101A2800C1180A081D1B0A0893170A082DE9F04F68
:101A38008BB007AD4FF0000B0646994614200C23D7
:101A48000F4690469DF850A0C5F804B0C5F808B0F8
:101A58000793FEF71EFB044638B180F800B080F803
:101A680001B0C0F804B0C0F808B0002310200394F7
:101A78000493FEF70EFB28B1012343608360234BD8
:101A8800C4600360224B049008200893FEF701FB12
:101A9800044628B1039B04A940F8043BFFF7CFFE96
:101AA80000955FFA8AF34A46414638460994FFF79B
:101AB80021FEB8B9039B5B7803F0FF0293B94FF698
:101AC8009C7305A903A80592ADF81830FFF71AFF13
:101AD8000598FFF72FFE05A80999FFF7B7FE06A896
:101AE800FEF74AFB039B04A906A80593FFF7A7FE88
:101AF80005A93046FFF792FE06A8FEF73DFB04A8AD
:101B0800FEF73AFB30460BB0BDE8F08F84490A086F
:101B1800851C0A08022AF8B5044606D0032A17D0FD
:101B2800012A20D10B6803601DE018200E68FEF71B
:101B3800B0FA054650B13146FFF7D5FE3069B6F91F
:101B4800147008B102F080FB2861AF8225600AE0BA
:101B5800046844B12069FFF7EDFD2046FFF736FE23
:101B68002046FEF798FA0020F8BD38B500238360B8
:101B78008B6804460D462BB102229847EB68E36058
:101B8800AB68A360204638BD022A70B5044606D06B
:101B9800032A11D0012A17D10B68036014E014201E
:101BA8000E68FEF776FA054620B13146FFF7DDFFED
:101BB800337C2B74256007E004682CB12046FFF7BE
:101BC80005FE2046FEF767FA002070BDF0B50C460A
:101BD800BFF35F8F87B0002350E8006F40E8003202
:101BE800002AF9D1BFF35F8F002E3ED01846FFF7C9
:101BF80055FD074620B121463046FFF764FE2EE02A
:101C0800314601A8FFF7B1FF237810208DF8143072
:101C1800FEF73FFA0546D0B187601420FEF739FA7F
:101C2800044678B18760014601A8FFF72CFE039BA4
:101C3800A268A360049B0392E268E3609DF81430F5
:101C4800049223740A4B2C60EB600A4BAB6001A82A
:101C5800FFF7BCFD002229460748FFF727FD30465D
:101C6800FFF7B4FD3046FEF716FA07B0F0BD00BF27
:101C7800E1180A08911B0A0893170A0830B50446A8
:101C880085B00D4668461146FFF7E0FD7CB124B2E9
:101C980028460DB102F0D8FA029002A96846ADF8BC
:101CA8000C40FFF72FFE0298FFF744FD1DE04FF0B0
:101CB800010200988DF80840D0E84F3FA34203D1B5
:101CC800C0E8412F0029F7D102D08DF808300CE088
:101CD80010F10C014FF0010318BF0373BFF35F8FBE
:101CE800043000F8033CFFF771FF01A8FEF744FA3F
:101CF80005B030BD7047F8B5064615460C468F1836
:101D0800BC4206D0336814F8011B9B6830469847DC
:101D1800F6E72846F8BD0022007CFFF795BB0021B6
:101D2800007CFFF799BB0021007CFFF79DBB0021D9
:101D3800007CFFF7A1BB0021007CFFF7A5BB10B515
:101D48000446FEF7A8F9204610BD000010B5044669
:101D580008464FF47A73A360044B00212074616035
:101D68002360FFF7A1FB204610BD00BFA0490A0869
:101D78000021007CFFF790BB826810B50AB901F01A
:101D8800FAF8C368BDE810401847000070B5064669
:101D9800FFF73AFB074B53F826501C462DB128464F
:101DA800FFF714FD2846FEF776F9002344F826309D
:101DB80070BD00BF9406002038B5002383608B688F
:101DC80004460D462BB102229847EB68E360AB68E6
:101DD800A360204638BD0000F8B50C4B064653F802
:101DE80020500F461C462DB12846FFF7EFFC284629
:101DF800FEF751F91020FEF74CF9054610B13946A7
:101E0800FFF7DAFF44F826502846F8BD940600206C
:101E1800F0B50C46054685B017461E46FFF7F4FA9E
:101E280021462846FFF7D8FF0446B8B1002104230D
:101E38008E4203918DF80C30B4BF0B469DF82830C4
:101E48000246A4BF8DF80E3003AB009306493B460B
:101E58002846A8BF8DF80D60FFF7CEFA201C18BFE2
:101E6800012005B0F0BD00BF811D0A08704710B5FC
:101E78000446FEF710F9204610BDF8B50F4600F1EC
:101E88000806051D002416F8011D0A22384600F030
:101E9800AAF8AE42044407D0002CF4D02E213846CC
:101EA80000F05EF80444EEE72046F8BD10B504469D
:101EB800044B112240F8043B002102F08AF9204625
:101EC80010BD00BFC8490A0810B59DF8084044EA8B
:101ED800032343EA024242EA016104234160037595
:101EE80010BD000037B5044D05609DF818500095E9
:101EF800FFF7EAFF03B030BDC8490A08014A024BA0
:101F08001A6070478A4A0A08F4060020F8B506469F
:101F18000D468F180024BD420CD0336815F8011BFC
:101F28009B6830469847002801DB0444F3E7002CFF
:101F380008BF04462046F8BD70B505460C4608465D
:101F480049B102F09CF92B68024621462846BDE8B3
:101F58007040DB68184770BD08B5FFF7EDFF08BD96
:101F680003689B68184738B50D210546FFF7F8FF49
:101F78000A2104462846FFF7F3FF204438BD38B548
:101F88000546FFF7D9FF04462846FFF7ECFF204433
:101F980038BD012A98BF0A2230B50B468BB0002104
:101FA8008DF824100DF12304B3FBF2F505FB123371
:101FB800DBB2092B94BF30333733DBB2214604F848
:101FC80001392B46002DEFD1FFF7B6FF0BB030BD1E
:101FD80010B422B90368C9B29B6810BC1847D2B2C2
:101FE80010BCFFF7D6BFFFF7F3BF2DE9F041074656
:101FF8000E4615462AB9BDE8F0410368C9B29B6888
:1020080018470A2A02D1002901DA04E0D2B2BDE851
:10201800F041FFF7BEBF2D21FFF7A2FF2A46044675
:1020280071423846FFF7B5FF2044BDE8F081000053
:102038002DE9F84319468046104617461E469DF876
:10204800205001F035FD08B1474912E026F0004460
:102058004FF0FF32454B3846214601F029FD68B95B
:102068004FF0FF32414B3846214601F003FD28B9B5
:102078003F494046FFF760FFBDE8F8834FF06042F4
:102088003C4B3846314601F009FD08B13A49F0E7C2
:102098004FF06042394B3846314601F0E1FC0028E8
:1020A800F4D1002200233846314601F0D9FC38B17A
:1020B8002D214046FFF754FF06F10046044600E094
:1020C80004462F494FF0000900205FFA89F39D422A
:1020D80006D900222B4B01F07BFB09F10109F4E73B
:1020E8003A46334601F098F80F46064601F01EFDC1
:1020F8000A22014681464046FFF74BFF04447DB360
:10210800484601F0C5F902460B463046394601F00B
:1021180081F806460F4640461B49FFF70DFF044469
:10212800184B00223046394601F028FA0F46064679
:1021380001F0D4FC0A22014681464046FFF755FFCC
:102148000444484601F0B4F902460B463046394685
:1021580001F060F8013D15F0FF0506460F46DFD196
:102168002046BDE8F88300BFA94A0A08FFFFEF7FB1
:10217800B34A0A08FFFFEF41AD4A0A08FFFFEFC163
:102188000000E03F00002440B14A0A0837B59DF836
:10219800181005460091FFF74BFF04462846FFF745
:1021A800E2FE204403B030BD10B50446FFF70EFB35
:1021B800204610BD034800238360034A034900F00A
:1021C800D5BE00BFF806002090030020B1210A0800
:1021D800704710B50446FDF75EFF204610BD0000AD
:1021E80070B504460E46074B0025036040F80C5FA7
:1021F800FFF7A2F830462671FFF7A0F9A560204640
:1022080070BD00BFC04A0A080079FFF79FB910B532
:102218000446FFF7B9F8E060236820465B699847F1
:10222800002808DAFFF7B0F8E368C01AA3689842F4
:10223800F2D34FF0FF3010BD2DE9F04180460D4636
:102248000C468F18BC42A4EB050607D04046FFF7A2
:10225800DEFF002802DB04F8010BF3E73046BDE897
:10226800F08100002DE9F14F80460D4617461E46C5
:10227800002200234046294601F0F2FB20B12D231D
:10228800337005F100450136002301240A22D9B232
:102298008F4202D954430133F9E7204601F008F987
:1022A80042462B4601F06AF982468B4601F0D4FD7E
:1022B8008046894601F02CF902460B46504659469D
:1022C80000F0A8FF0022174B01F0DEFB18B118F14F
:1022D800010849F10009E51722462B4640464946C0
:1022E80001F0A2FD01230A22314600F082FCAFB1C1
:1022F800304601F0C4FF2E233354013006442246F1
:102308002B464046494601F08FFD3B461046314674
:102318000A2201B0BDE8F04F00F06BBC01B0BDE887
:10232800F08F00BF0000E03F10B504460068FFF7DB
:1023380001FA204610BD10B50446006808B1FFF741
:10234800F9F900232360A360636010BD38B5044623
:102358000D4600680131FFF7F5F910B184E8210056
:10236800012038BD10B50368044613B143688B4299
:1023780007D22046FFF7EAFF20B1A3680BB922680D
:102388001370012010BD70B50E461146044615465F
:10239800FFF7E8FF18B92046FFF7CDFF09E02A4606
:1023A8003146A560206801F009FF2268A368002172
:1023B800D154204670BD38B505460C4641B1084693
:1023C80001F05DFF214602462846FFF7DCFF01E0E9
:1023D800FFF7B1FF284638BD30B5044600238BB05F
:1023E8000360436083600373D5B2084601F072F856
:1023F80001AB2A46FFF736FF01A92046FFF7DBFFAE
:1024080020460BB030BD00004FF69C7337B50D4C1D
:10241800002563804FF6FF732846A3802570FFF7D9
:102428002DF902A840F8045D2A462946FEF78CFFDC
:10243800019B1E2B04D10323237011236580A380E5
:1024480003B030BD0807002037B502AC036804F8B4
:10245800011DDD6B012247F230532146A84703B026
:1024680030BD10B40368DC6B47F23053A44610BC8F
:10247800604737B502AC036804F8011DDD6B2146DF
:1024880013460122A84703B030BD704770470020AB
:10249800704710B50446FDF7FEFD204610BDFDF758
:1024A800FABD00002DE9F0431F4603688FB0DB6AD0
:1024B80006460C4690469847134B186803681B68F5
:1024C8009847F0B102A8FFF7F1FC204601F0D7FECB
:1024D8000023009381B23B4603AA2046FFF7BEF8CB
:1024E80078B9336809ADD3F82090084B03AC08934A
:1024F8000FCC0FC5236842462B7008A93B463046CF
:10250800C8470FB0BDE8F083E04B0A08C8490A087D
:1025180010B5044603689B689847A368013BA3600D
:102528002BB923682046BDE81040DB68184710BD6A
:1025380070B5044606464D69044B8C3544F8043B97
:102548000FCD0FC42B683046237070BDC8490A08E8
:1025580010B543690446B3F88620B3F884309A422C
:1025680005D06269B2F884301344187910BD036845
:102578001B6998470028F4D14FF0FF3010BD10B503
:1025880043690446B3F88620B3F884309A4208D0E9
:102598006269B2F88430591CA2F88410134418797F
:1025A80010BD03681B6998470028F1D14FF0FF3030
:1025B80010BD10B504692068FEF788FF10B12068C7
:1025C800FEF7A4FF2046BDE81040FDF764BD0000FB
:1025D80010B5064B04460360806928B14368013B87
:1025E80043600BB9FFF794FF204610BDEC4A0A0878
:1025F80010B50446FFF7ECFF2046FDF74CFD2046DA
:1026080010BDF8B543691746B3F88620B3F884308F
:1026180005469A420E4606D103681B69984710B9C9
:102628004FF0FF3414E069693046B1F88430B1F8EE
:1026380086401944E41ABC4228BF3C46043122466D
:1026480001F0BCFD6A69B2F884302344A2F88430F2
:102658002046F8BD42690023A2F884304269A2F8F6
:102668008630704738B542690446B2F886301BB1E7
:10267800B2F884209A420BD0184B186803681B687C
:10268800984718B363691868FEF720FF18B91DE06A
:10269800FFF7E0FFF0E76069B0F886107F2915D8EA
:1026A800051DC1F18002002329440068FEF726FFBA
:1026B80000280BDD6369B3F886200AB9A3F88420E3
:1026C8006269B2F886301844A2F886006269B2F8E6
:1026D8008630B2F88400181A38BD00BFE04B0A08EB
:1026E80038B5436904461868FEF7F0FE18B1636907
:1026F8001868FEF70BFF6569FEF710FF2860606930
:10270800112200218C3001F064FD2046BDE83840DC
:10271800FFF7A0BFF8B54FF47A738360174B002614
:1027280046600360466186610446A0200F46FDF7B7
:10273800B0FC054638B10760A0F88460A0F8866050
:102748008830FFF7B3FB1420FDF7A3FC034628B13C
:102758000122426082600A4A05610260A0696561DF
:10276800A36128B14368013B43600BB9FFF7D0FE72
:102778002046FFF76FFF2046F8BD00BFEC4A0A0865
:10278800D04A0A0810B50446FEF7C8FE014620469E
:10279800FFF7C0FF204610BD2DE9F04198460368B9
:1027A8008AB0DB6A06460C46154698472F4B1868D0
:1027B80003681B689847002855D02B46062201213C
:1027C800CDF8008002207769FEF788FE2023386064
:1027D80002930027736903971B6801200193244B18
:1027E80002AA009323493B46FEF740FF7369186825
:1027F800FEF76CFE002836D03046FFF72BFF022389
:10280800ADF808302B0A8DF80A30E3794FF4FA5006
:102818008DF80C30A3798DF80B508DF80D30637955
:102828008DF80E3014F8043F8DF80F30FEF70EFFC8
:1028380073690546102202A91868FEF757FE8046FC
:102848002846FEF703FF0FCC75698C350FC5236842
:102858002B70B8F1000F05D033683046DB6A984713
:10286800384600E001200AB0BDE8F081E04B0A08D4
:10287800374B0A08304B0A0810B5436904461868F4
:10288800FEF724FE08B9002010BD074B186803683E
:102898001B6898470028F6D063691868FEF70EFE93
:1028A800B0FA80F0400910BDE04B0A082DE9F34169
:1028B8000025456004460E4617469846FFF7DCFF9C
:1028C80060B160690195CDF800802B463A463146E3
:1028D8000068FEF72BFE002803DA01E04FF0FF3016
:1028E800606002B0BDE8F08138B50446FFF7C4FF68
:1028F80000BB6369B3F88610B3F88420914219D1FC
:102908001868FEF7E3FD28B163691868FEF7D6FD7D
:10291800012801D000250EE0236820461B6998474E
:10292800002814BF0125002505D123682046DB6A4D
:10293800984700E00125284638BD08B5FFF79CFFF9
:10294800003018BF012008BD024B1A68024B1A60FC
:10295800704700BF2403002010070020704741740F
:102968007047007CFEF732BE007CFEF707BE007C95
:10297800FEF714BE007CFEF709BE007CFEF716BE0B
:1029880010B50446FDF787FB204610BD70B5457CA1
:1029980004460E4625B9007CFEF718FE002805DD22
:1029A8003146207CBDE87040FEF7E0BD284670BD8A
:1029B80010B5044608461146002262604FF47A7248
:1029C800A260054A20742260012262741A46FEF74A
:1029D800C5FD204610BD00BF7C4B0A08007CFEF7F1
:1029E800EDBD000038B50C4D296811F0010411D176
:1029F8002846FDF752FB68B1084A2146084B0948AA
:102A0800FFF7D6FF2846FDF74DFB074A074905485B
:102A180000F0ACFA034838BDAC070020B00700202E
:102A280028070020140700209003002065290A08C1
:102A38004174704770470021007CFEF7EFBD01210B
:102A4800007CFEF7EBBD007CFEF7E0BD007CFEF7E6
:102A5800D5BD38B50446007C0D46FEF7D7FD0028E5
:102A680001DC607C20B12946207CFEF7DFFD0120D7
:102A780038BD007CFEF7E2BD10B50446FDF70BFB40
:102A8800204610BD10B50446002363604FF47A73E6
:102A9800A360054B08462360012321746374114623
:102AA800FEF79CFD204610BDAC4B0A080022007CB6
:102AB800FEF79CBD10B504461422002101F089FBE5
:102AC800054B20466360054BE36040F20113238108
:102AD8008123238210BD00BFB908002038080020D8
:102AE80030B50E4D87B001A8FFF7E4FF296811F053
:102AF800010410D12846FDF7D0FA60B101AA214699
:102B08000748FFF7BFFF2846FDF7CCFA054A0649F4
:102B1800034800F02BFA024807B030BD3408002003
:102B2800BC090020900300203D2A0A0810B504467D
:102B38001422002101F04DFB054B20466360054B34
:102B4800E36040F2011323818123238210BD00BF7B
:102B58006C0A0020D409002010B50E4C86B001A8DC
:102B6800FFF7E4FF2368DB0710D42046FDF795FA4A
:102B780060B101AA01210848FFF784FF2046FDF74C
:102B880091FA064A0649044800F0F0F9024806B0EE
:102B980010BD00BFD0090020580A00209003002073
:102BA8003D2A0A087047002211461046FEF7B2BDBA
:102BB8000348044B044A0549036000F0D7B900BF35
:102BC800700B0020DC4B0A0890030020AD2B0A088C
:102BD80010B5044601F053FB0138231820469842EB
:102BE80006D20278197800F8011B03F80129F6E7E4
:102BF80010BD70B50C46911E222920D825462946BD
:102C080010B9234430220EE0B0FBF2F602FB1600A6
:102C1800C1B2092805F8011B94BF3031573105F8B6
:102C2800011C3046EBE7994202D201F8012BFAE782
:102C3800002320460B70FFF7CBFF204670BD002015
:102C480070BD000008B5144B33B1FFF749FF0368A6
:102C58001B699847002816DC104B33B1FFF7C2FEFA
:102C680003681B699847002810DC0D4B0BB1AFF3C4
:102C780000800C4B7BB1FFF76FFF03681B69984717
:102C8800002806DC08BDAFF30080E5E7AFF300805D
:102C9800EBE7AFF3008008BD000000000000000073
:102CA800000000000000000008B5FFF7CBFFFEF7AA
:102CB8006BFB014B186008BD7C0B00200248034ADF
:102CC8000349121A01F07ABA004002400440024057
:102CD800984D0A0807B5002300931A466FF077014C
:102CE800FEF7F6FC03B05DF804FB000007B5438867
:102CF8000A2B08D0502B09D1094B1B683BB103B0F4
:102D08005DF804EB1847FFF7E5FF06E000230093A2
:102D18001A466FF07701FEF7DBFC03B05DF804FBA1
:102D2800740B002038B5104C104D2368AB42104B83
:102D38000CBF012200221A7002D0FFF7BFFF2560E6
:102D4800FEF70AFB01F04EFA0A4B1BB1FEF704FB33
:102D5800AFF3008000210748FEF7D4FCBDE83840F7
:102D680000210548FEF7AABC004002401E1C279A15
:102D7800780B002000000000F52C0A0810B5044666
:102D88000F48FFF741FA28B1A4F10D03022B01D82F
:102D9800002010BD00F090F8FEF7EAFF08B1012C02
:102DA800F6D9FFF71FFEFFF719FE18B1A4F11203B9
:102DB800012BEDD9172C8CBF0020012010BD00BFBE
:102DC800B00B0020172838B504460D460AD8FF294D
:102DD80008D0FFF7D3FF28B129462046BDE8384080
:102DE800FEF7EABA38BD38B504460D46FEF7ECFAE8
:102DF800FF2810D0062804D84D2323FA00F0C30773
:102E080009D42046FFF7BAFF28B129462046BDE875
:102E18003840FEF7E1BA38BD10B50446FEF7D4FADB
:102E28000438C0B2012808D92046FFF7A7FF20B10F
:102E38002046BDE81040FEF7D7BA002010BD10B5F7
:102E4800044609289CBF0A34A4B22046FFF796FF1F
:102E580050B103212046FEF7A7FA032804D12046E3
:102E6800BDE81040FEF7E0BA002010BD38B50446B2
:102E78000D46FFF783FFF0B104212046FEF794FAD0
:102E8800042805D1A9B22046BDE83840FEF7C4BAE7
:102E980002212046FEF788FA02280CD12046FEF7C8
:102EA80093FA012801D0042805D129462046BDE817
:102EB8003840FEF7C1BA38BD38B50B4D296811F056
:102EC80001040FD12846FDF7E8F858B12146074814
:102ED800FEF73CFF2846FDF7E5F8054A0549034893
:102EE80000F044F8014838BD800B0020840B002016
:102EF80090030020FD1C0A0813B5084C00231A464D
:102F0800194600932046FEF7EDFF2046044A05497E
:102F180002B0BDE8104000F029B800BF980B0020AF
:102F280090030020751E0A0870B50C4C0C4E0D4D10
:102F380000212046FFF754F920460B4C324629461B
:102F480000F014F801212046FFF74AF932462946D5
:102F58002046BDE8704000F009B800BFB00B002063
:102F680090030020D9210A08C00B00200B46014617
:102F7800184601F015B908B5FEF7F4FB244B1A689A
:102F8800D0075CBF01221A60224B1A68D1075CBFC8
:102F980001221A60204B1A68D2075CBF01221A600E
:102FA8001E4B1A68D0075CBF01221A601C4B1A68B6
:102FB800D1075CBF01221A601A4B1A68D2075CBF9E
:102FC80001221A60184B1A68D0075CBF01221A60E8
:102FD800164B1A68D1075CBF01221A60144B1A6895
:102FE800D2075CBF01221A60124B1A68D0075CBF77
:102FF80001221A60104B1A68D1075CBF01221A60BF
:103008000E4B1A68D2075CBF01221A60704700BFD6
:10301800FC0B0020F80B0020F40B0020F00B002024
:10302800EC0B0020E80B0020E40B0020E00B002054
:10303800DC0B0020D80B0020D40B0020D00B002084
:10304800184B1A68D1075CBF01221A60164B1A6820
:10305800D2075CBF01221A60144B1A68D0075CBF04
:1030680001221A60124B1A68D1075CBF01221A604C
:10307800104B1A68D2075CBF01221A600E4B1A68FF
:10308800D0075CBF01221A600C4B1A68D1075CBFDD
:1030980001221A600A4B1A68D2075CBF01221A6023
:1030A800704700BF1C0C0020180C0020140C0020D6
:1030B800100C00200C0C0020080C0020040C002030
:1030C800000C0020184B1A68D1075CBF01221A6057
:1030D800164B1A68D2075CBF01221A60144B1A6893
:1030E800D0075CBF01221A60124B1A68D1075CBF77
:1030F80001221A60104B1A68D2075CBF01221A60BD
:103108000E4B1A68D0075CBF01221A600C4B1A6874
:10311800D1075CBF01221A600A4B1A68D2075CBF4C
:1031280001221A60704700BF3C0C0020380C0020B8
:10313800340C0020300C00202C0C0020280C00201F
:10314800240C0020200C0020244B1A68D0075CBFF8
:1031580001221A60224B1A68D1075CBF01221A604B
:10316800204B1A68D2075CBF01221A601E4B1A68EE
:10317800D0075CBF01221A601C4B1A68D1075CBFDC
:1031880001221A601A4B1A68D2075CBF01221A6022
:10319800184B1A68D0075CBF01221A60164B1A68D0
:1031A800D1075CBF01221A60144B1A68D2075CBFB2
:1031B80001221A60124B1A68D0075CBF01221A60FC
:1031C800104B1A68D1075CBF01221A600E4B1A68AF
:1031D800D2075CBF01221A60704700BF6C0C002048
:1031E800680C0020640C0020600C00205C0C00209F
:1031F800580C0020540C0020500C00204C0C0020CF
:10320800480C0020440C0020400C002081F00041B4
:1032180002E000BF83F0004330B54FEA41044FEAB3
:10322800430594EA050F08BF90EA020F1FBF54EA4E
:10323800000C55EA020C7FEA645C7FEA655C00F0EA
:10324800E2804FEA5454D4EB5555B8BF6D420CDDBB
:103258002C4480EA020281EA030382EA000083EA3E
:10326800010180EA020281EA0303362D88BF30BDDE
:1032780011F0004F4FEA01314FF4801C4CEA113134
:1032880002D0404261EB410113F0004F4FEA033393
:103298004CEA133302D0524263EB430394EA050F1E
:1032A80000F0A780A4F10104D5F1200E0DDB02FA8D
:1032B8000EFC22FA05F2801841F1000103FA0EF221
:1032C800801843FA05F359410EE0A5F120050EF1E7
:1032D800200E012A03FA0EFC28BF4CF0020C43FA18
:1032E80005F3C01851EBE37101F0004507D54FF025
:1032F800000EDCF1000C7EEB00006EEB0101B1F575
:10330800801F1BD3B1F5001F0CD349085FEA3000BA
:103318004FEA3C0C04F101044FEA445212F5800FC5
:1033280080F09A80BCF1004F08BF5FEA500C50F162
:10333800000041EB045141EA050130BD5FEA4C0C45
:10334800404141EB010111F4801FA4F10104E9D1CE
:1033580091F0000F04BF01460020B1FA81F308BFC5
:103368002033A3F10B03B3F120020CDA0C3208DD91
:1033780002F1140CC2F10C0201FA0CF021FA02F16C
:103388000CE002F11402D8BFC2F1200C01FA02F1DC
:1033980020FA0CFCDCBF41EA0C019040E41AA2BF01
:1033A80001EB0451294330BD6FEA04041F3C1CDAC9
:1033B8000C340EDC04F11404C4F1200220FA04F0E9
:1033C80001FA02F340EA030021FA04F345EA030193
:1033D80030BDC4F10C04C4F1200220FA02F001FA55
:1033E80004F340EA0300294630BD21FA04F02946D7
:1033F80030BD94F0000F83F4801306BF81F4801170
:103408000134013D4EE77FEA645C18BF7FEA655CE2
:1034180029D094EA050F08BF90EA020F05D054EAB4
:10342800000C04BF1946104630BD91EA030F1EBFB9
:103438000021002030BD5FEA545C05D140004941BD
:1034480028BF41F0004130BD14F580043CBF01F5B0
:10345800801130BD01F0004545F0FE4141F4700196
:103468004FF0000030BD7FEA645C1ABF1946104671
:103478007FEA655C1CBF0B46024650EA013406BF72
:1034880052EA033591EA030F41F4002130BD00BF31
:1034980090F0000F04BF0021704730B54FF48064EE
:1034A80004F132044FF000054FF0000150E700BF6F
:1034B80090F0000F04BF0021704730B54FF48064CE
:1034C80004F1320410F0004548BF40424FF00001BB
:1034D8003EE700BF42004FEAE2014FEA31014FEAFE
:1034E80002701FBF12F07F4393F07F4F81F060514D
:1034F800704792F0000F14BF93F07F4F704730B5BC
:103508004FF4607401F0004521F0004120E700BF4E
:1035180050EA010208BF704730B54FF000050AE0D5
:1035280050EA010208BF704730B511F0004502D5D6
:10353800404261EB41014FF4806404F132045FEAD8
:10354800915C3FF4DCAE4FF003025FEADC0C18BF7D
:1035580003325FEADC0C18BF033202EBDC02C2F173
:10356800200300FA03FC20FA02F001FA03FE40EA05
:103578000E0021FA02F11444C1E600BF70B54FF005
:10358800FF0C4CF4E06C1CEA11541DBF1CEA1355E7
:1035980094EA0C0F95EA0C0F00F0DEF82C4481EA4F
:1035A800030621EA4C5123EA4C5350EA013518BF6F
:1035B80052EA033541F4801143F4801338D0A0FB5C
:1035C80002CE4FF00005E1FB02E506F00042E0FB09
:1035D80003E54FF00006E1FB03569CF0000F18BF0F
:1035E8004EF0010EA4F1FF04B6F5007F64F54074B7
:1035F80004D25FEA4E0E6D4146EB060642EAC6214A
:1036080041EA55514FEAC52040EA5E504FEACE2EB6
:10361800B4F1FD0C88BFBCF5E06F1ED8BEF1004FB9
:1036280008BF5FEA500E50F1000041EB045170BD35
:1036380006F0004646EA010140EA020081EA030179
:10364800B4EB5C04C2BFD4EB0C0541EA045170BD75
:1036580041F480114FF0000E013C00F3AB8014F1EF
:10366800360FDEBF002001F0004170BDC4F1000438
:10367800203C35DA0C341BDC04F11404C4F12005B9
:1036880000FA05F320FA04F001FA05F240EA020014
:1036980001F0004221F0004110EBD37021FA04F64A
:1036A80042EB06015EEA430E08BF20EAD37070BD04
:1036B800C4F10C04C4F1200500FA04F320FA05F063
:1036C80001FA04F240EA020001F0004110EBD37065
:1036D80041F100015EEA430E08BF20EAD37070BDD5
:1036E800C4F1200500FA05F24EEA020E20FA04F3AE
:1036F80001FA05F243EA020321FA04F001F000415D
:1037080021FA04F220EA020000EBD3705EEA430ECD
:1037180008BF20EAD37070BD94F0000F0FD101F0FC
:103728000046400041EB010111F4801F08BF013C35
:10373800F7D041EA060195F0000F18BF704703F073
:103748000046520043EB030313F4801F08BF013DFA
:10375800F7D043EA0603704794EA0C0F0CEA1355B6
:1037680018BF95EA0C0F0CD050EA410618BF52EA70
:103778004306D1D181EA030101F000414FF0000076
:1037880070BD50EA410606BF1046194652EA430684
:1037980019D094EA0C0F02D150EA013613D195EAF8
:1037A8000C0F05D152EA03361CBF104619460AD140
:1037B80081EA030101F0004141F0FE4141F470014A
:1037C8004FF0000070BD41F0FE4141F4780170BD3A
:1037D80070B54FF0FF0C4CF4E06C1CEA11541DBF9F
:1037E8001CEA135594EA0C0F95EA0C0F00F0A7F8A1
:1037F800A4EB050481EA030E52EA03354FEA0131CE
:1038080000F088804FEA03334FF0805545EA1313E0
:1038180043EA12634FEA022245EA111545EA1065A8
:103828004FEA00260EF000419D4208BF964244F13F
:10383800FD0404F5407402D25B084FEA3202B61A5E
:1038480065EB03055B084FEA32024FF480104FF432
:10385800002CB6EB020E75EB030E22BFB61A7546A6
:1038680040EA0C005B084FEA3202B6EB020E75EB39
:10387800030E22BFB61A754640EA5C005B084FEAA1
:103888003202B6EB020E75EB030E22BFB61A75466E
:1038980040EA9C005B084FEA3202B6EB020E75EB79
:1038A800030E22BFB61A754640EADC0055EA060E3A
:1038B80018D04FEA051545EA16754FEA06164FEA7D
:1038C800C30343EA52734FEAC2025FEA1C1CC0D129
:1038D80011F4801F0BD141EA00014FF000004FF0B6
:1038E800004CB6E711F4801F04BF01430020B4F177
:1038F800FD0C88BFBCF5E06F3FF6AFAEB5EB030C2F
:1039080004BFB6EB020C5FEA500C50F1000041EB2B
:10391800045170BD0EF0004E4EEA113114EB5C04F8
:10392800C2BFD4EB0C0541EA045170BD41F48011CB
:103938004FF0000E013C90E645EA060E8DE60CEAD3
:10394800135594EA0C0F08BF95EA0C0F3FF43BAFF0
:1039580094EA0C0F0AD150EA01347FF434AF95EAA7
:103968000C0F7FF425AF104619462CE795EA0C0F8B
:1039780006D152EA03353FF4FDAE1046194622E758
:1039880050EA410618BF52EA43067FF4C5AE50EA32
:1039980041047FF40DAF52EA43057FF4EBAE12E722
:1039A8004FF0FF3C06E000BF4FF0010C02E000BF03
:1039B8004FF0010C4DF804CD4FEA410C7FEA6C5CE6
:1039C8004FEA430C18BF7FEA6C5C1BD001B050EA89
:1039D800410C0CBF52EA430C91EA030F02BF90EA74
:1039E800020F0020704710F1000F91EA030F58BF33
:1039F800994208BF90422CBFD8176FEAE37040F095
:103A0800010070474FEA410C7FEA6C5C02D150EA32
:103A1800013C07D14FEA430C7FEA6C5CD6D152EAED
:103A2800033CD3D05DF8040B704700BF84461046B2
:103A380062468C461946634600E000BF01B5FFF7B1
:103A4800B7FF002848BF10F1000F01BD4DF808ED81
:103A5800FFF7F4FF0CBF012000205DF808FB00BF52
:103A68004DF808EDFFF7EAFF34BF012000205DF8AC
:103A780008FB00BF4DF808EDFFF7E0FF94BF0120F9
:103A880000205DF808FB00BF4DF808EDFFF7CEFFFA
:103A980094BF012000205DF808FB00BF4DF808ED39
:103AA800FFF7C4FF34BF012000205DF808FB00BF0A
:103AB8004FEA410C7FEA6C5C02D150EA013C0AD122
:103AC8004FEA430C7FEA6C5C02D152EA033C02D114
:103AD8004FF0000070474FF0010070474FEA410275
:103AE80012F5001215D211D56FF47873B3EB625248
:103AF80012D94FEAC12343F0004343EA505311F06F
:103B0800004F23FA02F018BF404270474FF0000000
:103B1800704750EA013005D111F0004008BF6FF03E
:103B2800004070474FF00000704700BF4A0011D2B4
:103B380012F5001211D20DD56FF47873B3EB6252FF
:103B48000ED44FEAC12343F0004343EA505323FA0B
:103B580002F070474FF00000704750EA013002D180
:103B68004FF0FF3070474FF0000070474FEA4102B6
:103B7800B2F1E04324BFB3F5001CDCF1FE5C0DD9C3
:103B880001F0004C4FEAC0024CEA5070B2F1004F0D
:103B980040EB830008BF20F00100704711F0804F10
:103BA80021D113F13872BCBF01F00040704741F4D5
:103BB80080114FEA5252C2F11802C2F1200C10FAD9
:103BC8000CF320FA02F018BF40F001004FEAC123BD
:103BD8004FEAD32303FA0CFC40EA0C0023FA02F361
:103BE8004FEA4303CCE77FEA625307D150EA013337
:103BF8001EBF4FF0FE4040F44000704701F0004007
:103C080040F0FE4040F40000704700BF80F00040E4
:103C180002E000BF81F0004142001FBF5FEA41039C
:103C280092EA030F7FEA226C7FEA236C6AD04FEA9C
:103C38001262D2EB1363C1BFD218414048404140E1
:103C4800B8BF5B42192B88BF704710F0004F40F493
:103C5800000020F07F4018BF404211F0004F41F4AF
:103C6800000121F07F4118BF494292EA030F3FD07B
:103C7800A2F1010241FA03FC10EB0C00C3F120038E
:103C880001FA03F100F0004302D5494260EB40001D
:103C9800B0F5000F13D3B0F1807F06D340084FEA88
:103CA800310102F10102FE2A51D2B1F1004F40EB7D
:103CB800C25008BF20F0010040EA030070474900E5
:103CC80040EB000010F4000FA2F10102EDD1B0FAB0
:103CD80080FCACF1080CB2EB0C0200FA0CF0AABFA5
:103CE80000EBC25052421843BCBFD0401843704743
:103CF80092F0000F81F4000106BF80F40000013249
:103D0800013BB5E74FEA41037FEA226C18BF7FEA1F
:103D1800236C21D092EA030F04D092F0000F08BF61
:103D28000846704790EA010F1CBF0020704712F048
:103D38007F4F04D1400028BF40F00040704712F187
:103D480000723CBF00F50000704700F0004343F0EC
:103D5800FE4040F4000070477FEA226216BF084622
:103D68007FEA23630146420206BF5FEA412390EAE5
:103D7800010F40F4800070474FF0000304E000BFDB
:103D880010F0004348BF40425FEA000C08BF70478C
:103D980043F0964301464FF000001CE050EA010250
:103DA80008BF70474FF000030AE000BF50EA010265
:103DB80008BF704711F0004302D5404261EB410152
:103DC8005FEA010C02BF84460146002043F0B64377
:103DD80008BFA3F18053A3F50003BCFA8CF2083A9C
:103DE800A3EBC25310DB01FA02FC634400FA02FCA5
:103DF800C2F12002BCF1004F20FA02F243EB0200AC
:103E080008BF20F00100704702F1200201FA02FC0D
:103E1800C2F1200250EA4C0021FA02F243EB020000
:103E280008BF20EADC70704753B94AB9002908BFB7
:103E380000281CBF4FF0FF314FF0FF3000F0A6B94B
:103E4800ADF1080C6DE904CE00F02AF8DDF804E0C5
:103E5800DDE9022304B07047D0B500220E4B0646B8
:103E68000F46FFF78BFBFFF761FE0446FFF710FBD9
:103E780000220A4BFFF782FB02460B4630463946C2
:103E8800FFF7C8F9FFF752FE2346002242EA000274
:103E980010461946D0BD00BF0000F03D0000F041BB
:103EA8002DE9F04F8C460C460546099E002B4FD154
:103EB8008A4217466BD9B2FA82FEBEF1000F0BD0C8
:103EC800CEF1200520FA05F501FA0EF345EA030CB8
:103ED80002FA0EF700FA0EF5390CBCFBF1F0BAB293
:103EE80001FB10C300FB02F84FEA154C4CEA0344EF
:103EF800A04509D9E41900F1FF3380F02881A045D5
:103F080040F2258102383C44C8EB0404B4FBF1F3C9
:103F180001FB134C03FB02F2ACB244EA0C418A42A7
:103F280009D9C91903F1FF3480F00F818A4240F2A0
:103F38000C81023B39448A1A43EA00400021002ED2
:103F480063D022FA0EF2002386E80C00BDE8F08F59
:103F58008B4207D9002E56D0002186E8110008466A
:103F6800BDE8F08FB3FA83F1002940F09380A342B3
:103F780002D3824200F2FE80851A64EB03039C465A
:103F88000120002E41D086E82010BDE8F08F12B93C
:103F98000127B7FBF2F7B7FA87FEBEF1000F36D15B
:103FA800E41B4FEA17481FFA87F90121B4FBF8F31D
:103FB80008FB134409FB03F24FEA154C4CEA04448E
:103FC800A24207D9E41903F1FF3002D2A24200F25B
:103FD800D3800346A41AB4FBF8F008FB104809FB89
:103FE80000F9ACB244EA0842914507D9D21900F168
:103FF800FF3402D2914500F2BA802046C9EB020292
:1040080040EA03409BE731463046BDE8F08F07FAA7
:104018000EF7CEF1200C24FA0CF34FEA1748B3FB45
:10402800F8FA1FFA87F908FB1A3520FA0CFC04FA8B
:104038000EF40AFB09FB4CEA040C4FEA1C4242EA64
:1040480005439B4500FA0EF50AD9DB190AF1FF3240
:1040580080F08B809B4540F28880AAF1020A3B449D
:10406800CBEB0303B3FBF8F008FB103300FB09F4B8
:104078001FFA8CFC4CEA03439C4207D9DB1900F178
:10408800FF326ED29C426CD902383B441C1B40EA7A
:104098000A418BE7C1F1200E8B4022FA0EFC4CEA54
:1040A800030C24FA0EF74FEA1C49B7FBF9FA1FFA7A
:1040B8008CF309FB1A7720FA0EF88C400AFB03F5FB
:1040C80048EA04044FEA144848EA0747BD4202FA9E
:1040D80001F200FA01FB09D917EB0C070AF1FF30CE
:1040E80041D2BD423FD9AAF1020A67447F1BB7FB00
:1040F800F9F509FB157705FB03F3A4B244EA074772
:10410800BB4208D917EB0C0705F1FF3027D2BB4299
:1041180025D9023D674445EA0A40A0FB0289FF1AF7
:104128004F4545464C4614D329D066B3BBEB05032F
:1041380067EB040707FA0EFECB40CF404EEA0303B5
:1041480086E888000021BDE8F08F2346F3E618468C
:10415800DAE6B8EB020569EB0C040138E5E7054639
:10416800D9E7104692E78246C0E7924678E70238D8
:104178003A4443E7084604E7023B3C442AE7C34580
:10418800E7D33C46D1E73146BDE8F08F704700BF22
:104198000A22002100F014B90A22002100F010B907
:1041A80010B5054C13462CB10A4601460220AFF360
:1041B800008010BD204610BD0000000010B5431E51
:1041C8000A44914204D011F8014B03F8014FF8E773
:1041D80010BD03460244934202D003F8011BFAE7DC
:1041E8007047000038B5124B05461C68A36BD3B95D
:1041F8001820FDF797FA43F20E33A06303804AF6BE
:10420800CD33438041F2342383804EF26D63C38003
:104218004DF6EC630381052343810B23838101223F
:104228000023C0E90423A36B00221D615A6138BD35
:104238008C03002010F8012B11F8013B012A28BF3C
:104248009A42F7D0D01A7047024B0146186800F01E
:1042580003B800BF8C03002070B5064608460C461C
:1042680000F00DF8451C29463046FDF783FA06464E
:1042780018B12A462146FFF7A1FF304670BD034614
:1042880013F8012B002AFBD1181A0138704703468E
:1042980010B542B111F8014B013A03F8014B002C5B
:1042A800F7D11A4400E010BD934202D003F8014B45
:1042B800FAE710BD2DE9F0470F4680463F48D0F891
:1042C80000903D4615F8014B09EB0400407800F0DA
:1042D800080000F0FF0608B12F46F2E72D2C03D1A5
:1042E800BD1C7C78012603E02B2C04BF7C78BD1C08
:1042F80013B1102B0AD15BE0302C57D1287800F08D
:10430800DF0058284DD16C7810230235002E14BFD9
:104318004FF0004C6FF0004CBCFBF3FA0027384616
:1043280003FB1ACC09EB040E9EF801E01EF0040F03
:1043380001D0303C0BE01EF0030E1BD0BEF1010F84
:104348000CBF4FF0370E4FF0570ECEEB0404A342CC
:1043580010DDB7F1FF3F0AD0504506D801D16445BA
:1043680003DC03FB0040012701E04FF0FF3715F89D
:10437800014BD7E77B1C0CD1002E4FF0220314BF52
:104388004FF000406FF00040C8F800302AB9BDE88F
:10439800F08706B1404272B107B1691E1160BDE8ED
:1043A800F0873024002BB1D10823AFE70A23ADE70B
:1043B800302CA3D0AAE7BDE8F08700BF280300206F
:1043C80013460A46014602480068FFF773BF00BF5C
:1043D8008C0300201D000A085D000A0889000A08ED
:1043E8008D000A0800000000626C6E6B696E660042
:1043F80076657200302E352E3400682D6265617442
:1044080000313000627566662D696E0031303234D5
:1044180000646576005061727469636C6520506849
:104428006F746F6E006275696C64004D617920323B
:104438003620323031392031353A33363A3231008C
:104448000000256900256C6900696E006F757400AD
:1044580070776D00647700617700626C796E6B2D00
:10446800636C6F75642E636F6D0076770025322E4E
:104478003366004F4B007374617475730045727234
:104488006F720A0D09436865636B73756D206572F9
:10449800726F72004572726F720A0D094953522089
:1044A80074696D65206F7574206572726F7200454E
:1044B80072726F720A0D09526573706F6E736520A0
:1044C80074696D65206F7574206572726F7200452E
:1044D80072726F720A0D09446174612074696D65A6
:1044E800206F7574206572726F72004572726F72F8
:1044F8000A0D09416371756972696E6700457272C8
:104508006F720A0D0944656C74612074696D6520C9
:10451800746F6F20736D616C6C004572726F720AF4
:104528000D094E6F74207374617274656400556E62
:104538006B6E6F776E206572726F720054656D7066
:104548006572617475726520286F43293A2000747A
:10455800656D70657261747572650048756D696422
:10456800697479202825293A200068756D6964697D
:10457800747900007B110A087B110A087B110A086C
:104588007B110A087B110A087B110A087B110A08AB
:104598007B110A087B110A087B110A087B110A089B
:1045A8007B110A087B110A087B110A087B110A088B
:1045B8007B110A087B110A087B110A087B110A087B
:1045C8007B110A087B110A087B110A087B110A086B
:1045D8007B110A087B110A087B110A087B110A085B
:1045E8007B110A087B110A087B110A087B110A084B
:1045F8007B110A087B110A087B110A087B110A083B
:104608007B110A087B110A087B110A087B110A082A
:104618007B110A087B110A087B110A087B110A081A
:104628007B110A087B110A087B110A087B110A080A
:104638007B110A087B110A087B110A087B110A08FA
:104648007B110A087B110A087B110A087B110A08EA
:104658007B110A087B110A087B110A087B110A08DA
:104668007B110A087B110A087B110A087B110A08CA
:104678007B110A087B110A087B110A087B110A08BA
:104688007B110A087B110A087B110A087B110A08AA
:104698007B110A087B110A087B110A087B110A089A
:1046A8007B110A087B110A087B110A087B110A088A
:1046B8007B110A087B110A087B110A087B110A087A
:1046C8007B110A087B110A087B110A087B110A086A
:1046D8007B110A087B110A087B110A087B110A085A
:1046E8007B110A087B110A087B110A087B110A084A
:1046F8007B110A087B110A087B110A087B110A083A
:104708007B110A087B110A087B110A087B110A0829
:104718007B110A087B110A087B110A087B110A0819
:104728007B110A087B110A087B110A087B110A0809
:104738007B110A087B110A087B110A087B110A08F9
:104748007B110A087B110A087B110A087B110A08E9
:104758007B110A087B110A087B110A087B110A08D9
:104768007B110A087B110A087B110A087B110A08C9
:104778007B110A0879110A0879110A0879110A08BF
:1047880079110A0879110A0879110A0879110A08B1
:1047980079110A0879110A0879110A0879110A08A1
:1047A80079110A0879110A0879110A0879110A0891
:1047B80079110A0879110A0879110A0879110A0881
:1047C80079110A0879110A0879110A0879110A0871
:1047D80079110A0879110A0879110A0879110A0861
:1047E80079110A0879110A0879110A0879110A0851
:1047F80079110A0879110A0879110A0879110A0841
:1048080079110A0879110A0879110A0879110A0830
:1048180079110A0879110A0879110A0879110A0820
:1048280079110A0879110A0879110A0879110A0810
:1048380079110A0879110A0879110A0879110A0800
:1048480079110A0879110A0879110A0879110A08F0
:1048580079110A0879110A0879110A0879110A08E0
:1048680079110A0879110A0879110A0879110A08D0
:1048780079110A0879110A0879110A0879110A08C0
:1048880079110A0879110A0879110A0879110A08B0
:1048980079110A0879110A0879110A0879110A08A0
:1048A80079110A0879110A0879110A0879110A0890
:1048B80079110A0879110A0879110A0879110A0880
:1048C80079110A0879110A0879110A0879110A0870
:1048D80079110A0879110A0879110A0879110A0860
:1048E80079110A0879110A0879110A0879110A0850
:1048F80079110A0879110A0879110A0879110A0840
:1049080079110A0879110A0879110A0879110A082F
:1049180079110A0879110A0879110A0879110A081F
:1049280079110A0879110A0879110A0879110A080F
:1049380079110A0879110A0879110A0879110A08FF
:1049480079110A0879110A0879110A0879110A08EF
:1049580079110A0879110A0879110A0879110A08DF
:1049680079110A0879110A0879110A0879110A08CF
:1049780079110A080000000000000000B9170A08B1
:10498800BF170A08E7170A08CB170A08BB170A084F
:104998000000000000000000FD1C0A08471D0A086E
:1049A8001F1D0A08FF1C0A08271D0A082F1D0A08D0
:1049B800371D0A083F1D0A0800000000000000001B
:1049C800831E0A08751E0A08771E0A086C6E0066A0
:1049D8006E00636F64650064657461696C000D0A3C
:1049E80000253031307520005D20002564002C2022
:1049F8000028293A2000205B00636F6465203D2071
:104A08000064657461696C73203D2000626175649F
:104A18000053657269616C00555342536572696150
:104A28006C31007479706500706172616D00636D3E
:104A38006400696400686E64007374726D0066696E
:104A48006C74006C766C0061646448616E646C65BB
:104A5800720072656D6F766548616E646C65720090
:104A6800656E756D48616E646C657273004A534F6C
:104A78004E53747265616D4C6F6748616E646C6506
:104A88007200617070006E6F6E65007472616365AC
:104A980000696E666F007761726E0070616E69639F
:104AA800006E616E006F7666002E00696E6600000B
:104AB8000000000000000000D9210A08DB210A08D4
:104AC800000000000000000095240A089B240A0842
:104AD800BB250A08A7240A0897240A080000000032
:104AE80000000000D9250A08F9250A0851240A08F7
:104AF8006B240A086D260A0887250A0859250A081A
:104B080093240A08A1270A08AD240A080B260A08D4
:104B1800E9260A08F1280A0843290A087B240A0812
:104B2800B5280A0839250A08776972696E6700543A
:104B38004350436C69656E7420736F636B65743D95
:104B48002578005A00252B3033643A253032750019
:104B580025592D256D2D25645425483A254D3A258E
:104B680053257A0061736374696D65000000000065
:104B78000000000065290A0889290A0895290A08F9
:104B8800151F0A0871290A087D290A0877290A08C1
:104B980083290A0867290A086B290A080000000007
:104BA800000000003D2A0A08812A0A085B2A0A0830
:104BB800151F0A08552A0A083F2A0A08472A0A0818
:104BC8007B2A0A084F2A0A08392A0A080000000026
:104BD80000000000AF2B0A08700B002000202020E6
:104BE8002020202020202828282828202020202095
:104BF8002020202020202020202020202088101065
:104C080010101010101010101010101010040404C0
:104C1800040404040404041010101010101041417E
:104C2800414141410101010101010101010101016C
:104C38000101010101010101101010101010424280
:104C4800424242420202020202020202020202023C
:104C580002020202020202021010101020000000DC
:104C6800000000000000000000000000000000003C
:104C7800000000000000000000000000000000002C
:104C8800000000000000000000000000000000001C
:104C9800000000000000000000000000000000000C
:104CA80000000000000000000000000000000000FC
:104CB80000000000000000000000000000000000EC
:104CC80000000000000000000000000000000000DC
:104CD80000000000000000000000000000000000CC
:104CE80000000000000000000000000000000000BC
:104CF80000000000000000000000000000000000AC
:104D0800000000000000000000000000000000009B
:104D1800000000000000000000000000000000008B
:104D2800000000000000000000000000000000007B
:104D3800000000000000000000000000000000006B
:104D480043000000C50C0A0869110A0875110A0811
:104D5800A9110A083B130A08051F0A08BD210A08F9
:104D680011240A0851290A08B92B0A08012F0A0830
:104D7800312F0A08852F0A0849300A08CD300A0859
:084D880051310A08000000008F
:084D900018F1FF7F0100000093
:044D98000000000017
:104D9C003734646162373034643138323430363110
:104DAC006262343363663033646638363632343498
:104DBC00000000006C4B0A08E44B0A0800000000DD
:104DCC00E84C0A08084D0A08284D0A0800000000A3
:104DDC00000000000000000000000000484D0A0820
:104DEC0000000000000000000000000000000000B7
:104DFC0000000000000000000000000000000000A7
:104E0C000000000000000000000000000000000096
:104E1C000000000000000000000000002C03002037
:104E2C00FFFFFFFF00000102030405060708090A43
:104E3C000B0C0D0E0F101112131415161718191A3E
:084E4C001B1C1D1E1F20280085
:044E54007856341246
:04000005080A0018CD
:00000001FF
